:020000040000FA
:10000000F00500206501000073010000750100008B
:1000100000000000000000000000000000000000E0
:100020000000000000000000000000007701000058
:10003000000000000000000079010000CF22000055
:10004000D92200001123000079180000B91800001F
:100050001514000039220000550E0000D5100000D4
:10006000F9240000710800009D050000D10D00007A
:10007000652900003B220000000000000000000095
:100080000000000000000000000000000000000070
:100090000000000000000000000000000000000060
:1000A0000000000000000000000000000000000050
:1000B0000000000000000000000000000000000040
:1000C00000F002F800F03EF80CA030C80838241800
:1000D0002D18A246671EAB4654465D46AC4201D180
:1000E00000F030F87E460F3E0FCCB6460126334274
:1000F00000D0FB1AA246AB4633431847EC2B000056
:100100000C2C0000103A02D378C878C1FAD85207F4
:1001100001D330C830C101D504680C6070470000BD
:100120000023002400250026103A01D378C1FBD813
:10013000520700D330C100D50B6070471FB51FBDFB
:1001400010B510BD00F0F7F91146FFF7F7FF02F008
:100150006BFC00F00FFA03B4FFF7F2FF03BC00F0F2
:1001600015FA0000094880F30888094880470948C3
:100170000047FEE7FEE7FEE7FEE7FEE7FEE70000DA
:1001800005480649064A074B70470000F005002065
:10019000D1220000C1000000A0030020F0050020D3
:1001A000A0050020A005002001E004C0091F0429CB
:1001B000FBD28B0701D50280801CC90700D00270DA
:1001C000704700290BD0C30702D00270401C491EA3
:1001D000022904D3830702D50280801C891EE3E72D
:1001E0000022EEE70022DFE7002203098B422CD336
:1001F000030A8B4211D300239C464EE003460B4377
:100200003CD4002243088B4231D303098B421CD3D8
:10021000030A8B4201D394463FE0C3098B4201D3CA
:10022000CB01C01A524183098B4201D38B01C01A02
:10023000524143098B4201D34B01C01A5241030979
:100240008B4201D30B01C01A5241C3088B4201D328
:10025000CB00C01A524183088B4201D38B00C01AD5
:10026000524143088B4201D34B00C01A5241411AFC
:1002700000D201465241104670475DE0CA0F00D0DF
:100280004942031000D34042534000229C460309D8
:100290008B422DD3030A8B4212D3FC22890112BA5E
:1002A000030A8B420CD3890192118B4208D3890136
:1002B00092118B4204D389013AD0921100E089094E
:1002C000C3098B4201D3CB01C01A524183098B422F
:1002D00001D38B01C01A524143098B4201D34B0118
:1002E000C01A524103098B4201D30B01C01A52417B
:1002F000C3088B4201D3CB00C01A524183088B4202
:1003000001D38B00C01A5241D9D243088B4201D38A
:100310004B00C01A5241411A00D201466346524175
:100320005B10104601D34042002B00D54942704774
:1003300063465B1000D3404201B50020C046C04672
:1003400002BD704770477047F0B5FF252D04C60900
:10035000C209FF2704462E400137CB093E434840DF
:100360002A402B400746002A6BD0002B69D0AA42B6
:1003700067D0AB4265D0002800DA32460125ED0592
:1003800029432C4309022002090AD21A4B0C7F246C
:10039000E31A434C000A7C44E35C7D2424041219D4
:1003A00014145B00A218884201D3521C00E04000E4
:1003B00049420C465C4324115C43DB016415E3189D
:1003C000040A5C43C502200D0C4644436419250A07
:1003D0005D432303EC0C0D46654300030019EB1845
:1003E0004C42A34201D35B18401CD4052018002BBB
:1003F00007D05B00C91804D3401C002901D1400874
:1004000040003F2189048A4209D3002A08DC1106F2
:10041000090F04D0032149074018C00FC007F0BDE1
:1004200001224100120689187F2252069142F6D21B
:1004300005214907C84201D59010F0BDFF20C00535
:10044000F0BD002F00DA32461648AA4207D2AB426E
:1004500005D21902090E17D0F80FC007F0BDFF250D
:1004600063002D06AB42F9D84900A942F6D8AB4249
:1004700001D1A942F2D0A94201D1002101E06100DD
:100480004908D0050843F0BD1102090EFBD0FF203A
:100490000243D005F0BD0A460146104654E700006D
:1004A0000E2900000000C07F0102C21504D0012304
:1004B000DB071943002A0ADB9E239A1A02D4084656
:1004C000D0407047FF2241001206914201D900201E
:1004D0007047C017C04370471F22030C02D10F2280
:1004E00000041CD0030E01D10002083A030F01D111
:1004F0000001121F830F01D18000921E002801DB32
:100500004000521ED2055118021251181922904073
:1005100004D3491C002801D1490849000846704706
:10052000C10FC90700D04042012292071143D3E70F
:1005300001218907D0E7754600F024F8AE46050092
:1005400069465346C008C000854618B020B5FFF77D
:1005500017FE60BC00274908B6460026C0C5C0C5C6
:10056000C0C5C0C5C0C5C0C5C0C5C0C5403D4900A7
:100570008D46704710B50446C046C0462046FFF77A
:10058000EAFD10BD004870474003002001491820D3
:10059000ABBEFEE7260002007047000000B50B4826
:1005A000C16A03221143C1620949088A401C0882BA
:1005B00000F01CFC0748817F012905D1017F491CFF
:1005C0000177417F491C417700BD00004004014094
:1005D0001401002058010020F8B50C460546012101
:1005E000080201F02BFE2088042802D9001F80B2E7
:1005F00000E000201A49194B8B620202C805826193
:1006000000228A626288AA662679A28AB6023243EA
:10061000A67D278936033F013E433243A67C36023E
:10062000324392B26A65A689628936013243E6890D
:10063000278A36023F033E4332432A65094A258C06
:100640001563E58B5563A58B95638B624269638C5B
:100650009B011A43426100208862F8BD837A000042
:100660008000004000040140002141808180C18061
:10067000018141818181C181018241828182C18266
:100680008183C183018441847047000000B589B033
:100690006846FFF7E9FF00206A46908050820421F7
:1006A00051819081D0811082108101219182D0826C
:1006B00008201080518069460748FFF78DFF0648E3
:1006C000064940300160FF21C1624169C2141143F3
:1006D000416109B000BD00000004014040950000E8
:1006E00010B50C4800210180818001818181018247
:1006F0008182094A11670749084A80310A63084A1A
:100700000A621C224A62074A0A63012101F000FDC5
:1007100010BD00000007014080000020ADDE000099
:100720001C1C0000FECA000010B5134CA1798142C8
:100730001DD020468030C189C82907D201464039E2
:10074000097E012902D1C189491CC1810A48603052
:10075000417F01290CD0607908490870084600F0F3
:10076000D7FD2072207A00F00BF8207AA07110BD1E
:1007700000214177F9E700008000002010000020F0
:10078000F0B51B49194A0A631B4A1A4B9362184A6F
:1007900004261C25C03208240C27030002F0E3F8CD
:1007A00007201C101809050D2000144808624D622E
:1007B0000AE0134808624D6212E0114810300DE063
:1007C0000E48183008624E62D0686040D06007E082
:1007D0000C4808624E6203E00A48083808624F621B
:1007E00009480863044800218162F0BDADDE0000C5
:1007F00080070140837A000080000040040C000064
:100800000C0400000C1C0000FECA000010B50748D4
:1008100000240480848004818481048284822146AF
:1008200001F076FC0248046710BD0000000701409B
:100830008000002010B59320800001F0CDFC0B4C0F
:100840002061FF20F13001F0C7FC6061FF20F9302A
:1008500001F0C2FCA06120696169884204D020696E
:10086000A169884200D0FEE710BD000064000020AE
:1008700038B5144900204A68920721D502224A60FF
:1008800000236A46137008E04A69920701D5401CAC
:10089000C0B26C462278521C22706A461278042A32
:1008A000F2D302280CD90848437308480949037059
:1008B000074801220370888F10438887FFF7A6FF3F
:1008C00038BD000000020140800000202900002007
:1008D0002A0000201401002070B5044601210820E0
:1008E00001F0CEFC6069616C40020143A06CA2691A
:1008F00000025200104301432B48016021686268E6
:100900000901D2001143A26811438160E169226AA2
:10091000C90192011143626A52011143A26A120194
:100920001143E26CD2001143226D92001143626DBB
:1009300052001143A26D1143C160616BA26BC901EA
:1009400092011143E26B52011143226C12011143D7
:10095000626ED2001143A26E92001143E26E520009
:100960001143226F11430161114A104991624305FD
:100970005969104D2940E56A2D032943E568ED02C8
:100980002943E56D2D0229432569ED012943256B96
:10099000246E2D012943A400214359610021916255
:1009A0000321416070BD000000020140837A000015
:1009B00080000040438000000021012206C0016049
:1009C0008160C160016141618161C1610162416217
:1009D0008162C162016341638163C16301644164F7
:1009E0008164C164016541658165C16501664166D7
:1009F00042608166704700B59DB06846FFF7DCFF36
:100A000001200021400301F019FC0121880301F0BD
:100A100015FC052000900020012101910222159073
:100A200011900691189217900B9009910C926846BC
:100A3000FFF752FF1DB000BD01490120C872704789
:100A40008000002010B501214902134800F0B0FADF
:100A5000124B0022124900280FD0CA7108780028D2
:100A60000AD10A70087A401CC0B20872052803D95E
:100A70000A7201200870D87210BD0A720878012825
:100A8000FAD1C879401CC0B2C8710528F4D9CA711E
:100A90000A70DA7210BD00000008014080000020DA
:100AA0003000002030B5039D0E4C012D02D0218076
:100AB000208830BD884200D808462188814202D96A
:100AC000C5188D420BD8814202D2851A8D4206DBB1
:100AD000814201D9C81A02E0814200D288182080E0
:100AE000E6E700002C000020F8B50C460860896895
:100AF00001260A460F3A904209D2607E0021304317
:100B000060766161032801D166762176F8BD88425E
:100B1000FCD9657E02273D436576401AFFF708FD44
:100B2000E16902F04DF8FFF7BFFC6061216988427E
:100B300001D8014600E06161E068814200D2606155
:100B4000032DE3D167762676F8BD10B5C2698169B9
:100B500004688A1A4168036951436118C9138B42BA
:100B600002DB43698B4201DD036201E00B46016257
:100B7000C91A83685343C2684A43991A0919016024
:100B800010BD000010B5602001F0FAFE0A4A0948C5
:100B90009062D0050169C31319430161642001F01B
:100BA0008DFB1068054908431060054801F07AFB89
:100BB00010BD0000837A000080000040FF010000AB
:100BC000FF0F0000F0B587B072B6002425494C61D4
:100BD0004869CA1410434861009401940294039434
:100BE0000C601F20C862204D8D61684684821D48BC
:100BF00003264038471522E01C4B0494049A521CEB
:100C000004929A42FAD3CA6A3243CA620022825ECE
:100C1000009BD21800920422825E019BD21801929E
:100C20000822825E029BD21802920C22825E039BF3
:100C3000D21803928D616B469A8A521C9A826A4638
:100C4000928ABA42D8D30021094801F061FA00988B
:100C5000084940128883FFF719FD00F073FF62B660
:100C600007B0F0BD40040140A55A0000FF0100009C
:100C700000070140140100200B481E21415E00299D
:100C800001DA002101E04904490C0184028C416A27
:100C90008918826A891A416289088162C1621F21AA
:100CA00089010164704700001401002070B50446FA
:100CB0000121C80201F0C2FA012080074168617079
:100CC0001849174A8A62426923785B001A434261D5
:100CD00015488862FF216078C131144D0E1D01282E
:100CE00013D002281AD1A07800280DD0012815D1E0
:100CF00003202870084601F06FFA0014688030461F
:100D000001F06AFA001408E002202870084601F099
:100D100063FA6880304601F05FFAA88070BD000079
:100D2000837A000080000040FFFF00005C0000208C
:100D3000FF2800D3FF20094902228A5E89884243A6
:100D40005012401800B2002801DA002002E0FF280B
:100D500000DDFF2001218907C86270475C00002088
:100D600010B50321FFF73CFA10BD08B56846FFF740
:100D7000F7FF0020694608706846FFF797FF1B20C1
:100D8000FFF7D6FF08BD00000C491C20085E0C4A86
:100D90000C4B8218084620309A4202D301228276F8
:100DA00002E0807E002808D0074A00201070074A21
:100DB0001070888F1022104388877047140100201C
:100DC000AC0D0000591B0000290000202A00002063
:100DD00001490F2088607047800A0140014610B524
:100DE000FF20013001F04CFA10BD000010B5174A89
:100DF00011881748838BC91AC1839188002309047D
:100E0000002901DA838208E014210424415E145F82
:100E10000919CC0F6118491081821189090401D583
:100E2000438203E00821515E09114182918909043E
:100E300001D5C38210BD16210C23415ED35EC918B3
:100E4000CA0F51184910C18210BD000000040140B2
:100E5000140100200348C168090701D50821C160B9
:100E6000704700008008014070B5002301252A4624
:100E70000C689A40144094422AD10C79002C04D07A
:100E8000012C11D0022C04D006E00468164626433B
:100E900006604468944344604C79012C0BD0022CCA
:100EA00010D0002C0BD00DE0046894430460466819
:100EB00014463443EFE706691446344301E00469FD
:100EC0009443046184698E68012E05D09443846143
:100ED0005B1C102BCBD370BD1443F8E7F0B5324F39
:100EE0001601150214030B0001F03DFD10090D134E
:100EF000181E22282D33373D42484C52571D016A97
:100F0000394089180EE0016A274AE13A1140711808
:100F100008E0016A254A1140691803E0016A0905E1
:100F2000090D61180162F0BD416A394089180EE06F
:100F3000416A1D4AE13A1140711808E0416A1B4AB2
:100F40001140691803E0416A0905090D6118416201
:100F5000F0BD816A394089180EE0816A124AE13A8F
:100F60001140711808E0816A104A1140691803E0C5
:100F7000816A0905090D61188162F0BDC16A3940B5
:100F800089180EE0C16A084AE13A1140711808E078
:100F9000C16A064A1140691803E0C16A0905090DD2
:100FA0006118C162F0BD0000F0FF0000FFF000001A
:100FB0000246926800200A4200D0012070470021BA
:100FC00001600171417181607047002A01D00163A5
:100FD0007047416370470000FEB56846FFF7EFFFBA
:100FE0000124684604713F2080022F4E009069461C
:100FF0003046FFF739FF03220A213046FFF76EFF24
:1010000003220B213046FFF769FF03220C213046F3
:10101000FFF764FF03220D213046FFF75FFF032235
:101020000E213046FFF75AFF03220F213046FFF70B
:1010300055FF0025684605717020009069463046CE
:10104000FFF712FF022204213046FFF747FF02227A
:1010500005213046FFF742FF022206213046FFF706
:101060003DFF68460471082000900F4869464030F3
:10107000FFF7FAFE68460571600200906846447109
:1010800069463046FFF7F0FE00F09EFF68460471A7
:10109000694630460094FFF7E7FE012211463046CC
:1010A000FFF793FFFEBD00000008014001494860C2
:1010B0007047000000030140024840684007400FAD
:1010C000704700000003014001494968084070472B
:1010D00000030140F8B5012424042046FFF7F4FF83
:1010E0005A4D002870D02046FFF7E0FFFFF7E4FFDD
:1010F000574C207000F01CF956490860217869713E
:10110000554A00261178052901D3167001E0491CC3
:1011100011701178890049190862687B4B4C0127CE
:101120008034012817D1607C002814D16879052803
:101130000BD06879002808D06B799078474905284A
:101140000B5407D2401C907005E069794348017048
:10115000977000E09670AE635670A96B507883006C
:101160005B191B6AC918A963401CC0B250700628DD
:10117000F3D3A86BE863E87A002803D169790720E4
:1011800088436871687B012819D16879FFF7CCFA28
:10119000607C002813D1E0891E2810D92F49487897
:1011A000042802D0012805D007E04879012804D19D
:1011B00027740BE04879042807D0E6816674E0893B
:1011C0006E61287B012803D02DE026746774F6E752
:1011D00023480178022926D16F7305210170FFF79A
:1011E0006BFF1B4908706871E87A002803D16979A0
:1011F0000720884368716879A8716879FFF7C0FA99
:10120000184A16604A211748C943403801804B24C8
:1012100084800181848101828482FF211160012107
:1012200000F076FF2C67012464042046FFF74CFF92
:1012300000280AD02046FFF739FF687B012804D137
:1012400002484030818E491C8186F8BD8000002014
:10125000500000204C00002026000020000000204C
:101260002A0000204007014010B504460121022059
:1012700001F006F8A078218800040143E078227983
:101280000005120610430143607940060143A0792E
:1012900080060143E07900070143207A40070143BB
:1012A000207C8007014303480160E168C1600021A0
:1012B000416010BD0003014010B586B00446684689
:1012C00000F014F801216A461171947006480390E9
:1012D0003F201080D170D1711172002010746846C7
:1012E000FFF7C2FF06B010BD007C920007490180E5
:1012F000002181700122C2700271C271417181713D
:101300007D220172D200C26001747047FF030000A9
:1013100010B5064902460B6900204C69A34203D070
:101320000B6989698B4200D1107810BD64000020E0
:1013300001488068704700000003014010B572B694
:1013400031483249886200F015F901200004016833
:10135000C20011430160302001F012FB642001F053
:1013600021FB01F089F8FFF737FE0020FFF7A4FF0B
:1013700000F0BCFEFFF78AF9FFF7F7FCFFF73BFB35
:10138000002001F035F900F0DDFBFFF753FA0120F2
:10139000FFF724FD1E4800F091FF0021072000F018
:1013A0002DFE072000F01EFE01210A2000F026FE7F
:1013B0000A2000F017FE0221002000F01FFE00208E
:1013C00000F010FE0021012000F018FE012000F0C6
:1013D00009FE0221084600F011FE022000F002FE84
:1013E0000021092000F00AFE092000F0FBFD012188
:1013F000082000F003FE082000F0F4FD642001F056
:10140000E7FA62B610BD0000837A00008000004059
:1014100020A1070070470000FEB5524D2978012633
:101420005148002400290ED02978FF27F5370129DB
:1014300013D02978022905D11021FFF7B9FD012821
:101440007ED0AC81FEBD69460C71102100916946C9
:101450004E71FFF709FD2E70FEBD10214248FFF7C7
:10146000A7FD00282FD02889002801D0288968816D
:101470002C81A889B84202D2A889401CA881E88999
:101480003A4A3B49402705282AD9E8890F2827D21C
:101490006889052824D968890F2821D2EC816C81BC
:1014A000E888401CE8806C80AC80E8881428D3D998
:1014B000EC8002202870AC812C818A624868384315
:1014C00048608C62FEBDA889002801D0A889E88107
:1014D000AC812889B842D2D22889401C2881CEE725
:1014E000E888002809D06888401C688068887D23C7
:1014F0005B01984201D9EC806C80A888401CA880D0
:10150000A8887D23DB009842DCD9AC80687800286D
:10151000D8D16E708A624868B84348608C62684669
:10152000047101204002009068460F4D44716946E5
:101530002846FFF799FC68460471A815009000E062
:1015400006E06846467169462846FFF78DFCFEBDF9
:10155000A889401CA881A889B842F8D9AC812E700E
:101560006C70FEBD6400002040080140837A0000DA
:10157000800000400F200249800248607047000050
:10158000000C014070B5049C1D462361E26061605F
:10159000A060081AFEF7CCFF06462846FEF7C8FFF3
:1015A0003146FEF7D1FEE061002060762076606172
:1015B00070BD000030B50E484B210E4A0124416138
:1015C0000A4DA403083034C0084B00228A33143873
:1015D0000CC0426181611C30436041610260C261A4
:1015E00062230162083038C030BD0000DC05000015
:1015F000E80100208F02000070B52B4D00242C73F1
:101600006C73AC732C822C80AC61EC616C652E46E3
:101610004036B48628469430047044808480C48068
:101620000481048244828482C48204838476848315
:10163000C48304844462846201462031C4620C7411
:1016400044868C768487C4871949184808606421C9
:10165000E96528626862A862E86228636863E86DE9
:101660006866686EE866E86E80002866EC63AC63C6
:1016700010480476447644610F48046044600F4883
:101680000476447644610E4804604460FFF792FF9C
:101690006C802846603004774477F4872030C4811A
:1016A0000474447470BD000080000020C0655200C6
:1016B000080000207801002098010020B0010020DF
:1016C000D001002010B5FFF7A1F80848017B0848B9
:1016D000002903D1818F074A11408187808F00281C
:1016E00002D105490220087010BD000080000020D2
:1016F00014010020F6FDFFFF2900002010B501F0C5
:1017000009FA02490220087010BD000029000020DB
:10171000024803494078800008580047290000200B
:101720008C2C0000014904204870704729000020DB
:1017300010B5FEF7D5FF0948817D012907D1014683
:1017400060398A6F642A03D2886F401C886710BD95
:1017500000228A6782750248427010BDE0000020B6
:10176000290000200149012048707047290000200D
:1017700010B50848017B002909D04169491C416125
:1017800040690A2802D904490320487010BD00F0BE
:1017900067F810BD800000202900002001490220C8
:1017A000487070472900002010B50648017B0029C9
:1017B00005D0417B002901D10121417310BD00F00A
:1017C0004FF810BD8000002070B5184C207B002819
:1017D0000BD0174905204870FFF76EFC15490870BB
:1017E0006071E07A002803D006E000F039F870BD9F
:1017F00061790720884360716079A0716079FEF794
:10180000BFFF0D4A0020106095210B48C9434038A6
:101810000180962585800181858101828582FF2155
:101820001160012100F074FC256770BD800000206C
:1018300029000020500000204007014010B501F0B1
:1018400069F90548007B012804D104480021417052
:101850000321017010BD000080000020290000203D
:1018600010B5FEF7D3FF034802210170002141703B
:1018700010BD00002900002010B50A4C60698006E8
:101880000FD509490020487308490122087008490A
:1018900008700848818F11438187FEF7B7FF202029
:1018A000606110BD800701408000002029000020F9
:1018B0002A0000201401002070470000F8B50D46F2
:1018C00006460121102000F0DBFC304697498030AD
:1018D00001636A79297992001143AA7AEB7A12019D
:1018E0005B011A431143AA7992011143EA79D201AB
:1018F00011432A7B120211436A7B52021143F167A2
:101900002988316369887163E98B3162298C71623E
:10191000698CB162A98CF16229893167294620312D
:10192000CB7A8A7A5B001A438B7CEC8A9B01E401B8
:1019300023431A430B7B1B021A434B7B5B021A4364
:10194000CB7C9B031A432B8BDB031A430262CB7BBA
:101950008A7B5B001A430B7D6C8B9B01E401234364
:101960001A430B7C1B021A434B7C5B021A434B7DD0
:101970009B031A43AB8BDB031A4342622C46403471
:10198000A37822789B001A438B7FCF7F1B017F01B6
:101990003B431A4363785B001A43E378DB001A4346
:1019A0002379DB011A43237B1B021A43E37A5B0290
:1019B0001A43A37B9B021A43637BDB021A43237CFB
:1019C0001B031A43E37B5B031A438262637AE27967
:1019D0009B001A436379A7791B017F013B431A439C
:1019E000237A5B001A43A37ADB001A432379DB01D5
:1019F0001A43637C1B021A43A37C5B021A43C26234
:101A00000B7E8A7D1B011A434B7E0F7F5B01BF015A
:101A10003B431A43CB7D1B021A438B7E1B031A43A5
:101A2000CB7E497F5B031A4389030A437267E98CC3
:101A30003165298D7165E18EB167E989B164298AC3
:101A4000F1641221695EB1631421695EF163227D44
:101A5000E17C52001143627DA37D9200DB001A43BA
:101A60001143E27D603512011143227E5201114380
:101A7000627E92011143A27ED2011143E27E1202E4
:101A80001143227F52021143627F92021143A27FCF
:101A9000D2021143E27F120311432A785203114309
:101AA0006A78920311430160EA78A97852001143E1
:101AB0002A796B7912025B021A431143AA79120345
:101AC0001143EA79520311432A7A92031143816048
:101AD000697CAA7C090152011143EA7C92011143FD
:101AE0002A7DD20111430161AA7A697A5200114319
:101AF000EA7A2B7B9200DB001A4311436A7B1201C6
:101B00001143AA7B52011143EA7B920111432A7CC3
:101B1000D20111438161297EC1610549316441606F
:101B2000C160416103490163F8BD0000ADDE000002
:101B3000FFFF0000FECA000010B57A21FEF750FB3F
:101B400010BD000000B59FB06846FFF7F5FF00200C
:101B50006B461871012159719971D8821883588385
:101B60001F4A10ABDA860C226B461A725A721D4A53
:101B70001A806322D243DA83FF222D321A8448224C
:101B8000DA841A8508ABD872987210AB0B90D872B1
:101B90001390187408AB9874D874187510AB197139
:101BA00008AB1976587610ABD87418AB587408ABDC
:101BB000987710AB1970987018AB997408ABD977F7
:101BC00010AB5970D870094807490163084901638F
:101BD000064869468038FFF771FE1FB000BD00005F
:101BE0003F130000DC050000ADDE0000800701406F
:101BF000FECA000010B52449224A0A631C220024B0
:101C0000030000F0B0FE0504080D121518001F486F
:101C10000862082002E01E480862042048620AE0C8
:101C20000320800208624A6205E00A620C20F5E7A0
:101C3000184808624C621848028B5342124A803A94
:101C40001380038B9380038B5B421381038B9381FF
:101C5000038B5B421382038B9382038B0F4A1367C0
:101C6000408B094A603A1080074A0D48403A10609C
:101C70000C4808630C4804604169C2141143416177
:101C800010BD0000ADDE0000800701400808000024
:101C9000040400000C1C00005801002080000020FB
:101CA000FFFF0000FECA000040040140F8B51F4ECF
:101CB0001620305E1E49FF27F53700251D4C88424F
:101CC00014D2E581A089B84202D2A089401C12E05A
:101CD000A5811948457319482021057018480570D9
:101CE000B08F0843B087FEF791FD05E0A08900287A
:101CF00002D0A089401EA0811620305E1149884282
:101D00000CD9A581E089B84202D2E089401C0AE0E2
:101D1000E581B08F20218843B087F8BDE089002895
:101D2000FBD0E089401EE081F8BD000014010020D6
:101D30002710000012000020800000202900002051
:101D40002A00002001290000F8B5374C0125A577AD
:101D50000026E67796202083208B40086083684623
:101D60000670324F4EE03249C8686840C860684625
:101D7000007820702078FFF73DFF2677207F00282D
:101D8000FCD001212B4800F0C3F9207F0228FCD3AE
:101D90000021284800F0BCF927480088B98B401A78
:101DA0006946097800B289000919486069460878CF
:101DB0008000001941682148814203DD69460978A5
:101DC000022906D3694609788900091949688142C0
:101DD00000DDE5776677607F0528FCD3E07F00288B
:101DE00002D1B88F002809D0154801210670154886
:101DF000C9020670B88F0843B88707E069460878BB
:101E0000401C0870684600780528ACD372B6FEF70F
:101E10003DFCFFF797FE084940314869CA1410435A
:101E2000486162B6F8BD000058010020140100208E
:101E30000008014000070140000401408813000031
:101E4000290000202A00002070B50B4DA88E022822
:101E500010D90A480822818F002411438187C48742
:101E60002846403844730648047006480470FEF75C
:101E7000CDFCAC8670BD0000C00000201401002025
:101E8000290000202A00002000B51348027B1448D6
:101E90001249808F002A02D0002818D001E00028C3
:101EA00002D000F021F800BD0E4A9079401CC0B26B
:101EB0009071322805D300209071C86801225040EB
:101EC000C86006494031C8680822904302E0C868EB
:101ED00040084000C86000BD8000002000080140AC
:101EE0001401002030000020F0B534498878401CEF
:101EF000C0B28870142852D9002231488A70808F6D
:101F0000082301281BD002281BD004281BD0082836
:101F10001BD010281BD020281BD040281BD0802885
:101F20001BD0C41FF93C08D0C41FFF3CFA3C16D09C
:101F3000DC01A04215D1162018E0122016E0022084
:101F400014E0042012E0062010E0CB700FE00A201D
:101F50000CE00C200AE00E2008E0102006E014201F
:101F600004E00124E402A04201D11820C870134803
:101F7000144D40790C79401C124F40350126C0B2F7
:101F8000002C0DD0012C0AD1FC683443FC60EC68B5
:101F90001C43EC6048710A2801D34A710A71F0BDF4
:101FA000FC687440FC60EC685C40EC604871CB7885
:101FB0009842F4D34A710E71F0BD00003000002049
:101FC000140100200008014005480449816241686D
:101FD000202211434160002181627047837A000012
:101FE00080000040C206D20E012191404009024A01
:101FF000800080180160704700E100E08307FF2245
:10200000DB0E9A408907090E994000280BDA000779
:10201000000F0838830808489B001818C3699343C9
:102020000B43C3617047830804489B00181803687A
:1020300093430B430360704700ED00E000E400E0D1
:10204000F8B5234F787B0025224C012802D0258249
:102050006582F8BD204E1E20305E20498842208ACD
:1020600013DD7D21C900884202D2208A401C10E085
:102070007D731B4805701B480570B18F012040021D
:102080000143B187FEF7C2FB04E0002802D0208A9A
:10209000401E20821E20305E13498842608A11DD76
:1020A000C82802D2608A401C10E07D730C480121D0
:1020B00005700C4849020570B08F0843B087FEF7E1
:1020C000A5FBF8BD0028FCD0608A401E6082F8BDE8
:1020D0008000002012000020140100202E240000A7
:1020E000290000202A000020C326000010B501218D
:1020F000480200F0A3F8054803498162C1050A6956
:102100000A610021816210BD837A000080000040D6
:10211000074A803002630129816A05D0054A1140CF
:10212000816205490163704740221143F8E70000CE
:10213000ADDE0000BFFF0000FECA000010B50B4C72
:10214000E16B0B48FEF750F82064206C800020649F
:10215000E06C216C4018E064E06C616C401AE06453
:10216000E06C80086064606CA06410BD800000209A
:102170000054EA2A70B5144C0029A0611FD0134AFC
:10218000134DD16A126C914209D9AA612846E961BE
:10219000FEF7DBFC286A0F496061486011E0627855
:1021A0006169831A8B4201D9881803E083188B4236
:1021B00000D2881AC10360612960286201E04B20C7
:1021C0006061A08A80B270BD300000201401002040
:1021D000E801002098010020014689088900FF20BD
:1021E0009130814202D31348814207D99320800065
:1021F00081421CD34B20C000814218D8012000042A
:1022000000680123DB0218435B01186059200006B7
:10221000586018464160C26895200006586018460C
:1022200000685B1198435B011860104670470020FE
:10223000FCE70000FF0100007047704710B50F4C2D
:102240000D4AA26223151A0501290BD0410503D5B9
:10225000116919431161184311698143116100200B
:10226000A06210BD410503D51169994311619843DE
:1022700011690143F2E70000837A0000800000400A
:10228000074A064B93620029D16901D0014300E05F
:102290008143D1610020906270470000837A000082
:1022A000800000400449034A8A6248620020486274
:1022B00088627047837A00008000004008B50021E2
:1022C0000091814202D200BF491CF9E708BD704766
:1022D00010B5FEF757FC10BD10B50B48016A490751
:1022E00010D50421016209480178491C0170418818
:1022F000491C41808188491C8180C188491CC1805A
:10230000FFF78AF810BD000000050140140100200D
:102310000348016A490701D50421016270470000A2
:102320000006014070B5054627480C46854203D19A
:1023300001212020FFF7A4FF2448854203D1012179
:102340004020FFF79DFF20782179C007C906084388
:10235000217A89060843217B09060843218A090559
:102360000843A18A09040843E16909030843216A73
:10237000C9020843616A89020843A16A4902084305
:10238000E16A09020843616B09010843A16BC900B6
:102390000843E16B89000843216C49000843616CE4
:1023A00008432860A0696860E06CA860A06CE860E1
:1023B000206B2861206D6861606DA861A06DE86187
:1023C0000720286270BD00000005014000060140A2
:1023D0000021016041608160C160016141610122B1
:1023E000C261816141628162C162016302624163D3
:1023F000C163016441648164C164016541658263B4
:102400008165704770B5184C00252078022819D3D3
:102410002570608A00F05EFB1449088000F07EF9A8
:10242000FFF78CFE00F000FAFFF70EFDFEF724FC2C
:10243000FFF706FEFFF73AFC0D480E4900788000D2
:10244000085880476088142804D36580FFF71CFD76
:10245000FEF7F8FAA088C82800D3A58000F0FCF8A1
:1024600000F052F970BD000014010020800000202F
:10247000290000207C2C000030B587B06846FEF7AC
:102480009EFD0120694608714020164D00902846A7
:10249000FEF7EAFC002469460C7180210091694630
:1024A0002846FEF7E1FC042207212846FEF716FD28
:1024B000042206212846FEF711FD03A800F088F843
:1024C0004B20C0010390694604948C76CC7603209F
:1024D0000876044803A9C03000F030F800F004F892
:1024E00007B030BD40080140024800214180018012
:1024F00081807047300300200D48016AC90704D06D
:10250000012101620B4A00211170016A89070ED571
:1025100002210162C16808480288C31FF93B99542F
:102520000178491CC9B201808188491C81807047AB
:10253000000901405100002030030020F8B50C468E
:10254000064601210420FFF79BFE00251D48216857
:10255000FDF74AFE1C4F009004E0A91C6D1C00987A
:10256000FDF742FEB842F8D818498D61401EC1B24D
:10257000B1600004000E7060E079012802D00228EA
:102580001CD000200021637922795B001A43A379D3
:10259000C9009B000B431A4300010243207A40010B
:1025A00002433260E17BA07B49000843706260898E
:1025B0003061607BB061207BF061F8BD0120014695
:1025C000E1E70000006CDC02FFFF0000800000403B
:1025D0004B21C90101600021017141718171C171FB
:1025E00001724173418101738173C17370470000AF
:1025F000F0B597B007466846FFF7EAFE00240125CC
:102600000B9401941048159404260095099516968C
:1026100006900A946946079504940C48FFF782FED9
:102620006846FFF7D5FE109411940948159400945C
:10263000029406900D946946049716960F950548E6
:10264000FFF770FE17B0F0BDC05D0000000501404F
:1026500080BB000000060140F0B5274800228188B9
:10266000002911D04388C61FF93EF45C0127AA2C2B
:102670000BD0224C3A022260491E81801F498039CA
:102680000A605B1CD9B24180F0BD0929FCD31A4C09
:102690000021A41D4388F55C65545B1CDBB24380BC
:1026A0008388491C5B1EC9B283800929F2D3207834
:1026B000AA28E9D1207A5528E6D10020215C401CC7
:1026C0008918C0B28AB20728F8D3E179D0B288421B
:1026D000DAD10B4847700848801D8178427808029B
:1026E000104340BA0028CFD00648818F0029CBD0B4
:1026F00000218187F0BD00003003002080E100E070
:10270000510000201401002003484178012901D123
:10271000002141707047000051000020F8B53B4C8B
:10272000208800270126C82806D2A773FEF76EF876
:102730002782277367730EE02088FF212D3188429E
:1027400009D9208A032804D2208A401C20822673BB
:1027500001E003202082607B01280BD00021084685
:10276000FFF708FD00231A464B2118460097FEF795
:1027700099F9F8BD616D2548254D4030642905D291
:102780000776606D401C6065962033E006762088F1
:102790002049FEF7A9F91F480096808A012380B2DC
:1027A0001A464B21FEF77EF91B4906460860E16B8D
:1027B0001A48FDF719FDE065E06D8000E065206EC8
:1027C000E16D40182066206E616E401A2066206E12
:1027D00080086066606EE06630460121EE60FFF7BB
:1027E000C9FC0F492861884201DD296103E04B28BB
:1027F00001DA4B20286129690A484A420280818017
:1028000002818181028281822167F8BD80000020DF
:10281000300000207801002098010020804A5D05EA
:10282000DC05000000070140F8B5444E707B444FC2
:102830000221BB8F00250B431421795E414C0128F6
:1028400008D0414A2046408891422CDA32281BD2D7
:10285000401C35E03B483D4A808891420FDAFF2119
:10286000F531884201D2401C0CE075733848057080
:1028700038480570A18032206080E1800FE0002898
:1028800029D0401EA08026E075733148057031487C
:102890000570FF20F530A08032216180E080BB8789
:1028A000FDF7B4FF17E02C4A914214DD327B244936
:1028B0000223898F9943012A04D0002808D0401EA2
:1028C000608008E0E088002802D0401EE08002E03E
:1028D000E5806580B9871420385E204A0421904243
:1028E00014DD20890A2801D2401C19E075731848AC
:1028F0000570184805700A202081FF20F53060819E
:10290000B88F0843B887FDF781FFF8BD144A90429D
:10291000FBDA307B012805D02089002808D0401E32
:102920002081F8BD6089002802D0401E6081F8BD7A
:1029300065812581B88F8843B887F8BD8000002065
:102940001401002012000020E7140000F31500001D
:10295000290000202A0000200A180000433400004B
:10296000092F0000FEE730B47446641E2578641C0D
:10297000AB4200D21D46635D5B00E31830BC1847D4
:1029800006490A6904239A430A610549C008086098
:102990007D2280B2D20050434860704700E000E0E2
:1029A0005400002070B58726B6003146FDF71CFCA8
:1029B000C4B20D4604E0304600F020F8641EE4B2D4
:1029C000002CF8D1002D02D0284600F017F870BD79
:1029D0000849096848430849486100238B61012080
:1029E00008610869C20701D0C003FAD50B618B6189
:1029F000704700005400002000E000E008494968EA
:102A000048430849486100238B6101200861086937
:102A1000C20701D0C003FAD50B618B61704700007B
:102A20005400002000E000E0224C08B52046FFF7EB
:102A300045FC2046FFF742FCFEF780FCFEF7DCFD7C
:102A4000FEF7B8FD00F056F8FFF77EF91A48C168A6
:102A500049084900C16018484030C1680822114344
:102A6000C16016484B22E124E40095000090144B0D
:102A700021462846FEF786FD124A00927D22124B1F
:102A8000D20021462846FEF77DFDFDF7D5FFFEF773
:102A900013FB0E4908700E494871C87A002803D10B
:102AA0004A7907209043487148798871FFF7AAFC5A
:102AB000FCE70000204E00000008014078010020E3
:102AC000DC050000B00100201027000050000020AD
:102AD000800000200005000D010500D50020044AFB
:102AE0001188CB00591A08184003000C1080704759
:102AF0001200002010B50548018AC829FCD30449FA
:102B0000C160FEF75FF8FEF73FF910BD1401002029
:102B1000702C000070B5234D0120E87200246C7306
:102B2000AC61EC616C652E464036B4862846943024
:102B30008476C48304844462846201462031C46282
:102B40000C744486C4871949174848606421E965B4
:102B500028626862A862E86228636863E86D686654
:102B6000686EE866E86E80002866EC63AC63104827
:102B70000476447644610F48046044600E4804764D
:102B8000447644610D4804604460FEF713FD6C8098
:102B90002846603004774477F4872030C481047479
:102BA000447470BD80000020C06552000800002001
:102BB0007801002098010020B0010020D001002001
:102BC00070B5420064414B005C41120E39D01B0EBF
:102BD00038D0FF2A3CD0FF2B3AD040024902400AAD
:102BE000490A060045184E43000A090AD21848430C
:102BF000ED017F3A0104731A4019190C4318990F1B
:102C000004D001215B0849075B1A521CD80904D380
:102C1000401CF50301D19D0607D0FF2A08D2D50537
:102C200006D0E4072043401970BD0125A843F4E70E
:102C3000002A01DCE00770BD2402FF202043C0050C
:102C400070BD1B0EFF2A03D0FF2B01D0E00770BD23
:102C5000FF2645003606B54206D84D00B54203D8DA
:102C6000D218FF2A00D0E7E7004870BD0000C07FFF
:102C7000010200000000000000000000C516000076
:102C8000FD1600003D180000111700006517000038
:102C90009D1700007117000025170000C9170000DC
:102CA000A9170000311700008182838485868788F8
:102CB000898B8C8D8E8F919293959697999A9C9DE6
:102CC0009FA0A2A3A5A7A8AAACAEB0B2B3B5B7B94E
:102CD000BCBEC0C2C5C7C9CCCED1D4D7D9DCDFE217
:102CE000E6E9ECF0F3F7FAFE082D00000000002002
:102CF0008000000004010000882D000080000020FA
:102D0000700500002001000000000000000000002D
:102D100000000000000000000000000000000000B3
:102D200000000000000000000000000000000000A3
:102D3000000100000000000000140000000000007E
:102D40000000000000000000000000000000000083
:102D50000000000000000000000100000000000072
:102D60000000000000000000000000000000000063
:102D7000000000000000000000000000150000003E
:082D8000A2000000A300000006
:04000005000000C136
:00000001FF
